{
  "contractName": "Diskify",
  "abi": [
    {
      "inputs": [],
      "stateMutability": "nonpayable",
      "type": "constructor"
    },
    {
      "anonymous": false,
      "inputs": [
        {
          "indexed": true,
          "internalType": "address",
          "name": "account",
          "type": "address"
        },
        {
          "indexed": true,
          "internalType": "address",
          "name": "operator",
          "type": "address"
        },
        {
          "indexed": false,
          "internalType": "bool",
          "name": "approved",
          "type": "bool"
        }
      ],
      "name": "ApprovalForAll",
      "type": "event"
    },
    {
      "anonymous": false,
      "inputs": [
        {
          "indexed": true,
          "internalType": "address",
          "name": "_person",
          "type": "address"
        },
        {
          "indexed": false,
          "internalType": "uint256",
          "name": "_block_timestamp",
          "type": "uint256"
        },
        {
          "indexed": false,
          "internalType": "string",
          "name": "_ipfs_hash",
          "type": "string"
        }
      ],
      "name": "ChangePersonIPFS",
      "type": "event"
    },
    {
      "anonymous": false,
      "inputs": [
        {
          "indexed": true,
          "internalType": "address",
          "name": "_buyer",
          "type": "address"
        },
        {
          "indexed": true,
          "internalType": "address",
          "name": "_seller",
          "type": "address"
        },
        {
          "indexed": false,
          "internalType": "uint256",
          "name": "_block_timestamp",
          "type": "uint256"
        },
        {
          "indexed": false,
          "internalType": "uint256",
          "name": "_album_id",
          "type": "uint256"
        },
        {
          "indexed": false,
          "internalType": "uint256",
          "name": "_my_price",
          "type": "uint256"
        }
      ],
      "name": "NFTTraded",
      "type": "event"
    },
    {
      "anonymous": false,
      "inputs": [
        {
          "indexed": true,
          "internalType": "address",
          "name": "_artist",
          "type": "address"
        },
        {
          "indexed": false,
          "internalType": "uint256",
          "name": "_block_timestamp",
          "type": "uint256"
        },
        {
          "indexed": false,
          "internalType": "uint256",
          "name": "_album_id_counter",
          "type": "uint256"
        },
        {
          "indexed": false,
          "internalType": "string",
          "name": "_artist_name",
          "type": "string"
        }
      ],
      "name": "NewAlbum",
      "type": "event"
    },
    {
      "anonymous": false,
      "inputs": [
        {
          "indexed": true,
          "internalType": "address",
          "name": "_artist",
          "type": "address"
        },
        {
          "indexed": false,
          "internalType": "uint256",
          "name": "_block_timestamp",
          "type": "uint256"
        },
        {
          "indexed": false,
          "internalType": "bool",
          "name": "_attempt_status",
          "type": "bool"
        }
      ],
      "name": "NewArtist",
      "type": "event"
    },
    {
      "anonymous": false,
      "inputs": [
        {
          "indexed": true,
          "internalType": "address",
          "name": "_person",
          "type": "address"
        },
        {
          "indexed": false,
          "internalType": "uint256",
          "name": "_block_timestamp",
          "type": "uint256"
        },
        {
          "indexed": false,
          "internalType": "uint256",
          "name": "_person_id_counter",
          "type": "uint256"
        }
      ],
      "name": "NewPerson",
      "type": "event"
    },
    {
      "anonymous": false,
      "inputs": [
        {
          "indexed": true,
          "internalType": "address",
          "name": "_owner",
          "type": "address"
        },
        {
          "indexed": false,
          "internalType": "uint256",
          "name": "_block_timestamp",
          "type": "uint256"
        },
        {
          "indexed": false,
          "internalType": "string",
          "name": "_setOrUnset",
          "type": "string"
        },
        {
          "indexed": false,
          "internalType": "uint256",
          "name": "_album_id",
          "type": "uint256"
        }
      ],
      "name": "SetBlock",
      "type": "event"
    },
    {
      "anonymous": false,
      "inputs": [
        {
          "indexed": true,
          "internalType": "address",
          "name": "_owner",
          "type": "address"
        },
        {
          "indexed": false,
          "internalType": "uint256",
          "name": "_block_timestamp",
          "type": "uint256"
        },
        {
          "indexed": false,
          "internalType": "uint256",
          "name": "_album_id",
          "type": "uint256"
        },
        {
          "indexed": false,
          "internalType": "uint256",
          "name": "_my_price",
          "type": "uint256"
        }
      ],
      "name": "SettingNFTOnSale",
      "type": "event"
    },
    {
      "anonymous": false,
      "inputs": [
        {
          "indexed": true,
          "internalType": "address",
          "name": "operator",
          "type": "address"
        },
        {
          "indexed": true,
          "internalType": "address",
          "name": "from",
          "type": "address"
        },
        {
          "indexed": true,
          "internalType": "address",
          "name": "to",
          "type": "address"
        },
        {
          "indexed": false,
          "internalType": "uint256[]",
          "name": "ids",
          "type": "uint256[]"
        },
        {
          "indexed": false,
          "internalType": "uint256[]",
          "name": "values",
          "type": "uint256[]"
        }
      ],
      "name": "TransferBatch",
      "type": "event"
    },
    {
      "anonymous": false,
      "inputs": [
        {
          "indexed": true,
          "internalType": "address",
          "name": "operator",
          "type": "address"
        },
        {
          "indexed": true,
          "internalType": "address",
          "name": "from",
          "type": "address"
        },
        {
          "indexed": true,
          "internalType": "address",
          "name": "to",
          "type": "address"
        },
        {
          "indexed": false,
          "internalType": "uint256",
          "name": "id",
          "type": "uint256"
        },
        {
          "indexed": false,
          "internalType": "uint256",
          "name": "value",
          "type": "uint256"
        }
      ],
      "name": "TransferSingle",
      "type": "event"
    },
    {
      "anonymous": false,
      "inputs": [
        {
          "indexed": false,
          "internalType": "string",
          "name": "value",
          "type": "string"
        },
        {
          "indexed": true,
          "internalType": "uint256",
          "name": "id",
          "type": "uint256"
        }
      ],
      "name": "URI",
      "type": "event"
    },
    {
      "inputs": [],
      "name": "album_id_counter",
      "outputs": [
        {
          "internalType": "uint256",
          "name": "",
          "type": "uint256"
        }
      ],
      "stateMutability": "view",
      "type": "function",
      "constant": true
    },
    {
      "inputs": [],
      "name": "artist_fee",
      "outputs": [
        {
          "internalType": "uint256",
          "name": "",
          "type": "uint256"
        }
      ],
      "stateMutability": "view",
      "type": "function",
      "constant": true
    },
    {
      "inputs": [
        {
          "internalType": "address",
          "name": "account",
          "type": "address"
        },
        {
          "internalType": "uint256",
          "name": "id",
          "type": "uint256"
        }
      ],
      "name": "balanceOf",
      "outputs": [
        {
          "internalType": "uint256",
          "name": "",
          "type": "uint256"
        }
      ],
      "stateMutability": "view",
      "type": "function",
      "constant": true
    },
    {
      "inputs": [
        {
          "internalType": "address[]",
          "name": "accounts",
          "type": "address[]"
        },
        {
          "internalType": "uint256[]",
          "name": "ids",
          "type": "uint256[]"
        }
      ],
      "name": "balanceOfBatch",
      "outputs": [
        {
          "internalType": "uint256[]",
          "name": "",
          "type": "uint256[]"
        }
      ],
      "stateMutability": "view",
      "type": "function",
      "constant": true
    },
    {
      "inputs": [
        {
          "internalType": "address",
          "name": "",
          "type": "address"
        }
      ],
      "name": "diskify_users",
      "outputs": [
        {
          "internalType": "string",
          "name": "",
          "type": "string"
        }
      ],
      "stateMutability": "view",
      "type": "function",
      "constant": true
    },
    {
      "inputs": [
        {
          "internalType": "address",
          "name": "account",
          "type": "address"
        },
        {
          "internalType": "address",
          "name": "operator",
          "type": "address"
        }
      ],
      "name": "isApprovedForAll",
      "outputs": [
        {
          "internalType": "bool",
          "name": "",
          "type": "bool"
        }
      ],
      "stateMutability": "view",
      "type": "function",
      "constant": true
    },
    {
      "inputs": [
        {
          "internalType": "uint256",
          "name": "",
          "type": "uint256"
        }
      ],
      "name": "last_100_sold",
      "outputs": [
        {
          "internalType": "uint256",
          "name": "",
          "type": "uint256"
        }
      ],
      "stateMutability": "view",
      "type": "function",
      "constant": true
    },
    {
      "inputs": [],
      "name": "minted_nfts_100_counter",
      "outputs": [
        {
          "internalType": "uint256",
          "name": "",
          "type": "uint256"
        }
      ],
      "stateMutability": "view",
      "type": "function",
      "constant": true
    },
    {
      "inputs": [
        {
          "internalType": "uint256",
          "name": "",
          "type": "uint256"
        },
        {
          "internalType": "address",
          "name": "",
          "type": "address"
        }
      ],
      "name": "nft_price",
      "outputs": [
        {
          "internalType": "uint256",
          "name": "",
          "type": "uint256"
        }
      ],
      "stateMutability": "view",
      "type": "function",
      "constant": true
    },
    {
      "inputs": [],
      "name": "owner",
      "outputs": [
        {
          "internalType": "address",
          "name": "",
          "type": "address"
        }
      ],
      "stateMutability": "view",
      "type": "function",
      "constant": true
    },
    {
      "inputs": [],
      "name": "person_id_counter",
      "outputs": [
        {
          "internalType": "uint256",
          "name": "",
          "type": "uint256"
        }
      ],
      "stateMutability": "view",
      "type": "function",
      "constant": true
    },
    {
      "inputs": [
        {
          "internalType": "address",
          "name": "from",
          "type": "address"
        },
        {
          "internalType": "address",
          "name": "to",
          "type": "address"
        },
        {
          "internalType": "uint256[]",
          "name": "ids",
          "type": "uint256[]"
        },
        {
          "internalType": "uint256[]",
          "name": "amounts",
          "type": "uint256[]"
        },
        {
          "internalType": "bytes",
          "name": "data",
          "type": "bytes"
        }
      ],
      "name": "safeBatchTransferFrom",
      "outputs": [],
      "stateMutability": "nonpayable",
      "type": "function"
    },
    {
      "inputs": [
        {
          "internalType": "address",
          "name": "from",
          "type": "address"
        },
        {
          "internalType": "address",
          "name": "to",
          "type": "address"
        },
        {
          "internalType": "uint256",
          "name": "id",
          "type": "uint256"
        },
        {
          "internalType": "uint256",
          "name": "amount",
          "type": "uint256"
        },
        {
          "internalType": "bytes",
          "name": "data",
          "type": "bytes"
        }
      ],
      "name": "safeTransferFrom",
      "outputs": [],
      "stateMutability": "nonpayable",
      "type": "function"
    },
    {
      "inputs": [
        {
          "internalType": "address",
          "name": "operator",
          "type": "address"
        },
        {
          "internalType": "bool",
          "name": "approved",
          "type": "bool"
        }
      ],
      "name": "setApprovalForAll",
      "outputs": [],
      "stateMutability": "nonpayable",
      "type": "function"
    },
    {
      "inputs": [],
      "name": "sold_nfts_100_counter",
      "outputs": [
        {
          "internalType": "uint256",
          "name": "",
          "type": "uint256"
        }
      ],
      "stateMutability": "view",
      "type": "function",
      "constant": true
    },
    {
      "inputs": [
        {
          "internalType": "bytes4",
          "name": "interfaceId",
          "type": "bytes4"
        }
      ],
      "name": "supportsInterface",
      "outputs": [
        {
          "internalType": "bool",
          "name": "",
          "type": "bool"
        }
      ],
      "stateMutability": "view",
      "type": "function",
      "constant": true
    },
    {
      "inputs": [
        {
          "internalType": "uint256",
          "name": "",
          "type": "uint256"
        }
      ],
      "name": "top_100_new_release",
      "outputs": [
        {
          "internalType": "uint256",
          "name": "",
          "type": "uint256"
        }
      ],
      "stateMutability": "view",
      "type": "function",
      "constant": true
    },
    {
      "inputs": [
        {
          "internalType": "uint256",
          "name": "",
          "type": "uint256"
        }
      ],
      "name": "uri",
      "outputs": [
        {
          "internalType": "string",
          "name": "",
          "type": "string"
        }
      ],
      "stateMutability": "view",
      "type": "function",
      "constant": true
    },
    {
      "inputs": [
        {
          "internalType": "address",
          "name": "",
          "type": "address"
        }
      ],
      "name": "user_is_artist",
      "outputs": [
        {
          "internalType": "bool",
          "name": "",
          "type": "bool"
        }
      ],
      "stateMutability": "view",
      "type": "function",
      "constant": true
    },
    {
      "inputs": [
        {
          "internalType": "address payable",
          "name": "_to",
          "type": "address"
        }
      ],
      "name": "approveMeAsArtist",
      "outputs": [
        {
          "internalType": "bool",
          "name": "",
          "type": "bool"
        }
      ],
      "stateMutability": "payable",
      "type": "function",
      "payable": true
    },
    {
      "inputs": [
        {
          "internalType": "uint256",
          "name": "_album_id",
          "type": "uint256"
        }
      ],
      "name": "getAlbum",
      "outputs": [
        {
          "components": [
            {
              "internalType": "string",
              "name": "album_info_pointer_ipfs_hash",
              "type": "string"
            },
            {
              "internalType": "address",
              "name": "artist",
              "type": "address"
            },
            {
              "internalType": "bool",
              "name": "block",
              "type": "bool"
            },
            {
              "internalType": "uint8",
              "name": "diskify_royalties",
              "type": "uint8"
            },
            {
              "internalType": "uint8",
              "name": "artist_royalties",
              "type": "uint8"
            }
          ],
          "internalType": "struct Diskify.Album",
          "name": "",
          "type": "tuple"
        }
      ],
      "stateMutability": "view",
      "type": "function",
      "constant": true
    },
    {
      "inputs": [],
      "name": "getAlbumIdCounter",
      "outputs": [
        {
          "internalType": "uint256",
          "name": "",
          "type": "uint256"
        }
      ],
      "stateMutability": "view",
      "type": "function",
      "constant": true
    },
    {
      "inputs": [
        {
          "internalType": "uint256",
          "name": "_album_id",
          "type": "uint256"
        }
      ],
      "name": "getAlbumIPFSHash",
      "outputs": [
        {
          "internalType": "string",
          "name": "",
          "type": "string"
        }
      ],
      "stateMutability": "view",
      "type": "function",
      "constant": true
    },
    {
      "inputs": [],
      "name": "getArtistFee",
      "outputs": [
        {
          "internalType": "uint256",
          "name": "",
          "type": "uint256"
        }
      ],
      "stateMutability": "view",
      "type": "function",
      "constant": true
    },
    {
      "inputs": [],
      "name": "getBlockTimestamp",
      "outputs": [
        {
          "internalType": "uint256",
          "name": "",
          "type": "uint256"
        }
      ],
      "stateMutability": "view",
      "type": "function",
      "constant": true
    },
    {
      "inputs": [
        {
          "internalType": "uint256",
          "name": "_album_id",
          "type": "uint256"
        }
      ],
      "name": "getLatest100sold",
      "outputs": [
        {
          "internalType": "string",
          "name": "",
          "type": "string"
        }
      ],
      "stateMutability": "view",
      "type": "function",
      "constant": true
    },
    {
      "inputs": [
        {
          "internalType": "address",
          "name": "_caller",
          "type": "address"
        }
      ],
      "name": "getPerson",
      "outputs": [
        {
          "internalType": "string",
          "name": "",
          "type": "string"
        }
      ],
      "stateMutability": "view",
      "type": "function",
      "constant": true
    },
    {
      "inputs": [],
      "name": "getPersonIdCounter",
      "outputs": [
        {
          "internalType": "uint256",
          "name": "",
          "type": "uint256"
        }
      ],
      "stateMutability": "view",
      "type": "function",
      "constant": true
    },
    {
      "inputs": [
        {
          "internalType": "uint256",
          "name": "_album_id",
          "type": "uint256"
        }
      ],
      "name": "getTop100Release",
      "outputs": [
        {
          "internalType": "string",
          "name": "",
          "type": "string"
        }
      ],
      "stateMutability": "view",
      "type": "function",
      "constant": true
    },
    {
      "inputs": [
        {
          "internalType": "uint256",
          "name": "_index",
          "type": "uint256"
        }
      ],
      "name": "getUserAddress",
      "outputs": [
        {
          "internalType": "address",
          "name": "",
          "type": "address"
        }
      ],
      "stateMutability": "view",
      "type": "function",
      "constant": true
    },
    {
      "inputs": [
        {
          "internalType": "string",
          "name": "_album_info_pointer",
          "type": "string"
        },
        {
          "internalType": "uint8",
          "name": "_diskify_royalties",
          "type": "uint8"
        },
        {
          "internalType": "uint8",
          "name": "_artist_royalties",
          "type": "uint8"
        },
        {
          "internalType": "uint256",
          "name": "_price",
          "type": "uint256"
        },
        {
          "internalType": "uint256",
          "name": "n_copies",
          "type": "uint256"
        },
        {
          "internalType": "string",
          "name": "_artist_name",
          "type": "string"
        }
      ],
      "name": "setAlbum",
      "outputs": [],
      "stateMutability": "nonpayable",
      "type": "function"
    },
    {
      "inputs": [
        {
          "internalType": "uint256",
          "name": "_new_fee",
          "type": "uint256"
        }
      ],
      "name": "setArtistFee",
      "outputs": [],
      "stateMutability": "nonpayable",
      "type": "function"
    },
    {
      "inputs": [
        {
          "internalType": "uint256",
          "name": "_album_id",
          "type": "uint256"
        },
        {
          "internalType": "bool",
          "name": "_set",
          "type": "bool"
        }
      ],
      "name": "setBlockForAlbumId",
      "outputs": [],
      "stateMutability": "nonpayable",
      "type": "function"
    },
    {
      "inputs": [
        {
          "internalType": "string",
          "name": "_ipfs_info_hash",
          "type": "string"
        },
        {
          "internalType": "bool",
          "name": "_is_artist",
          "type": "bool"
        }
      ],
      "name": "setPerson",
      "outputs": [],
      "stateMutability": "nonpayable",
      "type": "function"
    },
    {
      "inputs": [
        {
          "internalType": "uint256",
          "name": "_album_id",
          "type": "uint256"
        },
        {
          "internalType": "uint256",
          "name": "_my_price",
          "type": "uint256"
        }
      ],
      "name": "settingMyNFTToSale",
      "outputs": [],
      "stateMutability": "nonpayable",
      "type": "function"
    },
    {
      "inputs": [
        {
          "internalType": "address payable",
          "name": "_to",
          "type": "address"
        },
        {
          "internalType": "address payable",
          "name": "_artist",
          "type": "address"
        },
        {
          "internalType": "address payable",
          "name": "_owner",
          "type": "address"
        },
        {
          "internalType": "uint256",
          "name": "_album_id",
          "type": "uint256"
        }
      ],
      "name": "tradeNFT",
      "outputs": [
        {
          "internalType": "bool",
          "name": "",
          "type": "bool"
        }
      ],
      "stateMutability": "payable",
      "type": "function",
      "payable": true
    }
  ],
  "bytecode": "0x608060405267016345785d8a00006007553480156200001d57600080fd5b50604051806020016040528060008152506200003f816200006660201b60201c565b50600060038190555060006004819055506000600581905550600060068190555062000197565b80600290805190602001906200007e92919062000082565b5050565b828054620000909062000161565b90600052602060002090601f016020900481019282620000b4576000855562000100565b82601f10620000cf57805160ff191683800117855562000100565b8280016001018555821562000100579182015b82811115620000ff578251825591602001919060010190620000e2565b5b5090506200010f919062000113565b5090565b5b808211156200012e57600081600090555060010162000114565b5090565b7f4e487b7100000000000000000000000000000000000000000000000000000000600052602260045260246000fd5b600060028204905060018216806200017a57607f821691505b6020821081141562000191576200019062000132565b5b50919050565b6151f180620001a76000396000f3fe60806040526004361061020e5760003560e01c80637a898e0e11610118578063c7efc6e5116100a0578063ec6eaf5f1161006f578063ec6eaf5f1461083d578063ecf9c5e21461087a578063f242432a146108aa578063f7593a34146108d3578063fb240704146108fc5761020e565b8063c7efc6e51461075b578063d6e465c914610798578063e68037e1146107d5578063e985e9c5146108005761020e565b806390d976e2116100e757806390d976e2146106785780639fea7ba2146106b5578063a22cb465146106de578063aefb79cb14610707578063c37d9463146107305761020e565b80637a898e0e146105ba578063848498e9146105e55780638b67ba93146106225780638da5cb5b1461064d5761020e565b8063338133bb1161019b5780634e1273f41161016a5780634e1273f41461049b578063552d2d5c146104d857806367e845731461051557806377c957eb14610552578063796b89b91461058f5761020e565b8063338133bb146103dc5780633e903ace146104195780633ef72975146104495780633ff3deea146104725761020e565b8063208a7224116101e2578063208a7224146102f55780632c9c6051146103205780632e6ed6ba1461035d5780632eb2c2d6146103885780632f4e0687146103b15761020e565b8062fdd58e1461021357806301ffc9a7146102505780630e89341c1461028d57806316144031146102ca575b600080fd5b34801561021f57600080fd5b5061023a60048036038101906102359190613535565b610939565b6040516102479190613584565b60405180910390f35b34801561025c57600080fd5b50610277600480360381019061027291906135f7565b610a02565b604051610284919061363f565b60405180910390f35b34801561029957600080fd5b506102b460048036038101906102af919061365a565b610ae4565b6040516102c19190613720565b60405180910390f35b3480156102d657600080fd5b506102df610b78565b6040516102ec9190613584565b60405180910390f35b34801561030157600080fd5b5061030a610c04565b6040516103179190613584565b60405180910390f35b34801561032c57600080fd5b5061034760048036038101906103429190613742565b610c0a565b6040516103549190613584565b60405180910390f35b34801561036957600080fd5b50610372610c2f565b60405161037f9190613584565b60405180910390f35b34801561039457600080fd5b506103af60048036038101906103aa919061397f565b610c35565b005b3480156103bd57600080fd5b506103c6610cd6565b6040516103d39190613584565b60405180910390f35b3480156103e857600080fd5b5061040360048036038101906103fe9190613a4e565b610cdc565b6040516104109190613720565b60405180910390f35b610433600480360381019061042e9190613ab9565b610d7c565b604051610440919061363f565b60405180910390f35b34801561045557600080fd5b50610470600480360381019061046b9190613bed565b6112d8565b005b34801561047e57600080fd5b5061049960048036038101906104949190613c82565b6114ec565b005b3480156104a757600080fd5b506104c260048036038101906104bd9190613e0a565b611826565b6040516104cf9190613f40565b60405180910390f35b3480156104e457600080fd5b506104ff60048036038101906104fa9190613a4e565b61193f565b60405161050c9190613720565b60405180910390f35b34801561052157600080fd5b5061053c6004803603810190610537919061365a565b611a10565b6040516105499190613720565b60405180910390f35b34801561055e57600080fd5b506105796004803603810190610574919061365a565b611acb565b6040516105869190613584565b60405180910390f35b34801561059b57600080fd5b506105a4611ae3565b6040516105b19190613584565b60405180910390f35b3480156105c657600080fd5b506105cf611aeb565b6040516105dc9190613584565b60405180910390f35b3480156105f157600080fd5b5061060c6004803603810190610607919061365a565b611b77565b6040516106199190613720565b60405180910390f35b34801561062e57600080fd5b50610637611c32565b6040516106449190613584565b60405180910390f35b34801561065957600080fd5b50610662611c38565b60405161066f9190613f71565b60405180910390f35b34801561068457600080fd5b5061069f600480360381019061069a919061365a565b611c50565b6040516106ac9190613f71565b60405180910390f35b3480156106c157600080fd5b506106dc60048036038101906106d7919061365a565b611d0f565b005b3480156106ea57600080fd5b5061070560048036038101906107009190613f8c565b611d9b565b005b34801561071357600080fd5b5061072e60048036038101906107299190613fcc565b611f1c565b005b34801561073c57600080fd5b5061074561207b565b6040516107529190613584565b60405180910390f35b34801561076757600080fd5b50610782600480360381019061077d919061365a565b612085565b60405161078f9190613720565b60405180910390f35b3480156107a457600080fd5b506107bf60048036038101906107ba919061365a565b61224b565b6040516107cc91906140f9565b60405180910390f35b3480156107e157600080fd5b506107ea6123b5565b6040516107f79190613584565b60405180910390f35b34801561080c57600080fd5b506108276004803603810190610822919061411b565b6123bb565b604051610834919061363f565b60405180910390f35b34801561084957600080fd5b50610864600480360381019061085f9190613a4e565b61244f565b604051610871919061363f565b60405180910390f35b610894600480360381019061088f919061415b565b61246f565b6040516108a1919061363f565b60405180910390f35b3480156108b657600080fd5b506108d160048036038101906108cc9190614188565b612561565b005b3480156108df57600080fd5b506108fa60048036038101906108f5919061421f565b612602565b005b34801561090857600080fd5b50610923600480360381019061091e919061365a565b612784565b6040516109309190613584565b60405180910390f35b60008073ffffffffffffffffffffffffffffffffffffffff168373ffffffffffffffffffffffffffffffffffffffff1614156109aa576040517f08c379a00000000000000000000000000000000000000000000000000000000081526004016109a1906142d1565b60405180910390fd5b60008083815260200190815260200160002060008473ffffffffffffffffffffffffffffffffffffffff1673ffffffffffffffffffffffffffffffffffffffff16815260200190815260200160002054905092915050565b60007fd9b67a26000000000000000000000000000000000000000000000000000000007bffffffffffffffffffffffffffffffffffffffffffffffffffffffff1916827bffffffffffffffffffffffffffffffffffffffffffffffffffffffff19161480610acd57507f0e89341c000000000000000000000000000000000000000000000000000000007bffffffffffffffffffffffffffffffffffffffffffffffffffffffff1916827bffffffffffffffffffffffffffffffffffffffffffffffffffffffff1916145b80610add5750610adc8261279c565b5b9050919050565b606060028054610af390614320565b80601f0160208091040260200160405190810160405280929190818152602001828054610b1f90614320565b8015610b6c5780601f10610b4157610100808354040283529160200191610b6c565b820191906000526020600020905b815481529060010190602001808311610b4f57829003601f168201915b50505050509050919050565b600073cd109a076466eff8e224a3a10619f54b7e4ce2f173ffffffffffffffffffffffffffffffffffffffff163273ffffffffffffffffffffffffffffffffffffffff1614610bfc576040517f08c379a0000000000000000000000000000000000000000000000000000000008152600401610bf3906143c4565b60405180910390fd5b600354905090565b60045481565b600c602052816000526040600020602052806000526040600020600091509150505481565b60055481565b610c3d612806565b73ffffffffffffffffffffffffffffffffffffffff168573ffffffffffffffffffffffffffffffffffffffff161480610c835750610c8285610c7d612806565b6123bb565b5b610cc2576040517f08c379a0000000000000000000000000000000000000000000000000000000008152600401610cb990614456565b60405180910390fd5b610ccf858585858561280e565b5050505050565b60065481565b60096020528060005260406000206000915090508054610cfb90614320565b80601f0160208091040260200160405190810160405280929190818152602001828054610d2790614320565b8015610d745780601f10610d4957610100808354040283529160200191610d74565b820191906000526020600020905b815481529060010190602001808311610d5757829003601f168201915b505050505081565b600084826001600080610d8f8585610939565b1180610de4575073cd109a076466eff8e224a3a10619f54b7e4ce2f173ffffffffffffffffffffffffffffffffffffffff163273ffffffffffffffffffffffffffffffffffffffff16148015610de3575081155b5b15610dee57600190505b80610e2e576040517f08c379a0000000000000000000000000000000000000000000000000000000008152600401610e25906144c2565b60405180910390fd5b856008600082815260200190815260200160002060010160149054906101000a900460ff1615610e93576040517f08c379a0000000000000000000000000000000000000000000000000000000008152600401610e8a9061452e565b60405180910390fd5b600c600088815260200190815260200160002060008b73ffffffffffffffffffffffffffffffffffffffff1673ffffffffffffffffffffffffffffffffffffffff16815260200190815260200160002054341015610f26576040517f08c379a0000000000000000000000000000000000000000000000000000000008152600401610f1d9061459a565b60405180910390fd5b6008600088815260200190815260200160002060010160009054906101000a900473ffffffffffffffffffffffffffffffffffffffff1673ffffffffffffffffffffffffffffffffffffffff168973ffffffffffffffffffffffffffffffffffffffff1614610fca576040517f08c379a0000000000000000000000000000000000000000000000000000000008152600401610fc190614606565b60405180910390fd5b73cd109a076466eff8e224a3a10619f54b7e4ce2f173ffffffffffffffffffffffffffffffffffffffff168873ffffffffffffffffffffffffffffffffffffffff161461104c576040517f08c379a000000000000000000000000000000000000000000000000000000000815260040161104390614672565b60405180910390fd5b60006008600089815260200190815260200160002060010160159054906101000a900460ff1660ff166103e83461108391906146f0565b61108d9190614721565b90506000600860008a815260200190815260200160002060010160169054906101000a900460ff1660ff166103e8346110c691906146f0565b6110d09190614721565b905060008183346110e1919061477b565b6110eb919061477b565b90508a73ffffffffffffffffffffffffffffffffffffffff166108fc849081150290604051600060405180830381858888f19350505050158015611133573d6000803e3d6000fd5b508b73ffffffffffffffffffffffffffffffffffffffff166108fc839081150290604051600060405180830381858888f1935050505015801561117a573d6000803e3d6000fd5b508c73ffffffffffffffffffffffffffffffffffffffff166108fc829081150290604051600060405180830381858888f193505050501580156111c1573d6000803e3d6000fd5b506112058d328c60016040518060400160405280600381526020017f3078300000000000000000000000000000000000000000000000000000000000815250612561565b6000600c60008c815260200190815260200160002060008f73ffffffffffffffffffffffffffffffffffffffff1673ffffffffffffffffffffffffffffffffffffffff168152602001908152602001600020819055508c73ffffffffffffffffffffffffffffffffffffffff163273ffffffffffffffffffffffffffffffffffffffff167fa0ac19934f984aa92d6f53f12a85aa2a25a7b9a9e913655937635c4942bc2f18428d346040516112bc939291906147af565b60405180910390a3600198505050505050505050949350505050565b6000600960003273ffffffffffffffffffffffffffffffffffffffff1673ffffffffffffffffffffffffffffffffffffffff168152602001908152602001600020805461132490614320565b905014156113ed5732600b6000600454815260200190815260200160002060006101000a81548173ffffffffffffffffffffffffffffffffffffffff021916908373ffffffffffffffffffffffffffffffffffffffff16021790555060016004600082825461139391906147e6565b925050819055503273ffffffffffffffffffffffffffffffffffffffff167f31afcd00b06ee7065f55c126d900cb37852f2947dfcd7158e27152de04a0771d426004546040516113e492919061483c565b60405180910390a25b81600960003273ffffffffffffffffffffffffffffffffffffffff1673ffffffffffffffffffffffffffffffffffffffff168152602001908152602001600020908051906020019061144092919061339d565b5080600a60003273ffffffffffffffffffffffffffffffffffffffff1673ffffffffffffffffffffffffffffffffffffffff16815260200190815260200160002060006101000a81548160ff0219169083151502179055503273ffffffffffffffffffffffffffffffffffffffff167fc09d5ae96b99efc4d91bf77ae79d2911b6ee9b3416e07ee7c3ee9253c19ec52242846040516114e0929190614865565b60405180910390a25050565b32600a60008273ffffffffffffffffffffffffffffffffffffffff1673ffffffffffffffffffffffffffffffffffffffff16815260200190815260200160002060009054906101000a900460ff16611579576040517f08c379a000000000000000000000000000000000000000000000000000000000815260040161157090614907565b60405180910390fd5b6040518060a001604052808881526020013273ffffffffffffffffffffffffffffffffffffffff1681526020016000151581526020018760ff1681526020018660ff1681525060086000600354815260200190815260200160002060008201518160000190805190602001906115f092919061339d565b5060208201518160010160006101000a81548173ffffffffffffffffffffffffffffffffffffffff021916908373ffffffffffffffffffffffffffffffffffffffff16021790555060408201518160010160146101000a81548160ff02191690831515021790555060608201518160010160156101000a81548160ff021916908360ff16021790555060808201518160010160166101000a81548160ff021916908360ff1602179055509050506116ba326003548560405180602001604052806000815250612b22565b3273ffffffffffffffffffffffffffffffffffffffff167f9727c3171cad5c05d429cda016654ab0173221d6dd49ca1f9f19ca51b3adf9b4426003548560405161170693929190614927565b60405180910390a283600c6000600354815260200190815260200160002060003273ffffffffffffffffffffffffffffffffffffffff1673ffffffffffffffffffffffffffffffffffffffff168152602001908152602001600020819055503273ffffffffffffffffffffffffffffffffffffffff167f7549cbaa8f36b82a48702f1623ca9e1ae1eab2acf0a577356c096d7ec5493d3a42600354876040516117b1939291906147af565b60405180910390a2606360055411156117cd5760006005819055505b600354600e60006005548152602001908152602001600020819055506001600560008282546117fc91906147e6565b9250508190555060016003600082825461181691906147e6565b9250508190555050505050505050565b6060815183511461186c576040517f08c379a0000000000000000000000000000000000000000000000000000000008152600401611863906149d7565b60405180910390fd5b6000835167ffffffffffffffff81111561188957611888613787565b5b6040519080825280602002602001820160405280156118b75781602001602082028036833780820191505090505b50905060005b8451811015611934576119048582815181106118dc576118db6149f7565b5b60200260200101518583815181106118f7576118f66149f7565b5b6020026020010151610939565b828281518110611917576119166149f7565b5b6020026020010181815250508061192d90614a26565b90506118bd565b508091505092915050565b6060600960008373ffffffffffffffffffffffffffffffffffffffff1673ffffffffffffffffffffffffffffffffffffffff168152602001908152602001600020805461198b90614320565b80601f01602080910402602001604051908101604052809291908181526020018280546119b790614320565b8015611a045780601f106119d957610100808354040283529160200191611a04565b820191906000526020600020905b8154815290600101906020018083116119e757829003601f168201915b50505050509050919050565b606060086000600e60008581526020019081526020016000205481526020019081526020016000206000018054611a4690614320565b80601f0160208091040260200160405190810160405280929190818152602001828054611a7290614320565b8015611abf5780601f10611a9457610100808354040283529160200191611abf565b820191906000526020600020905b815481529060010190602001808311611aa257829003601f168201915b50505050509050919050565b600e6020528060005260406000206000915090505481565b600042905090565b600073cd109a076466eff8e224a3a10619f54b7e4ce2f173ffffffffffffffffffffffffffffffffffffffff163273ffffffffffffffffffffffffffffffffffffffff1614611b6f576040517f08c379a0000000000000000000000000000000000000000000000000000000008152600401611b66906143c4565b60405180910390fd5b600454905090565b606060086000600d60008581526020019081526020016000205481526020019081526020016000206000018054611bad90614320565b80601f0160208091040260200160405190810160405280929190818152602001828054611bd990614320565b8015611c265780601f10611bfb57610100808354040283529160200191611c26565b820191906000526020600020905b815481529060010190602001808311611c0957829003601f168201915b50505050509050919050565b60075481565b73cd109a076466eff8e224a3a10619f54b7e4ce2f181565b600073cd109a076466eff8e224a3a10619f54b7e4ce2f173ffffffffffffffffffffffffffffffffffffffff163273ffffffffffffffffffffffffffffffffffffffff1614611cd4576040517f08c379a0000000000000000000000000000000000000000000000000000000008152600401611ccb906143c4565b60405180910390fd5b600b600083815260200190815260200160002060009054906101000a900473ffffffffffffffffffffffffffffffffffffffff169050919050565b73cd109a076466eff8e224a3a10619f54b7e4ce2f173ffffffffffffffffffffffffffffffffffffffff163273ffffffffffffffffffffffffffffffffffffffff1614611d91576040517f08c379a0000000000000000000000000000000000000000000000000000000008152600401611d88906143c4565b60405180910390fd5b8060078190555050565b8173ffffffffffffffffffffffffffffffffffffffff16611dba612806565b73ffffffffffffffffffffffffffffffffffffffff161415611e11576040517f08c379a0000000000000000000000000000000000000000000000000000000008152600401611e0890614ae1565b60405180910390fd5b8060016000611e1e612806565b73ffffffffffffffffffffffffffffffffffffffff1673ffffffffffffffffffffffffffffffffffffffff16815260200190815260200160002060008473ffffffffffffffffffffffffffffffffffffffff1673ffffffffffffffffffffffffffffffffffffffff16815260200190815260200160002060006101000a81548160ff0219169083151502179055508173ffffffffffffffffffffffffffffffffffffffff16611ecb612806565b73ffffffffffffffffffffffffffffffffffffffff167f17307eab39ab6107e8899845ad3d59bd9653f200f220920489ca2b5937696c3183604051611f10919061363f565b60405180910390a35050565b32826001600080611f2d8585610939565b1180611f82575073cd109a076466eff8e224a3a10619f54b7e4ce2f173ffffffffffffffffffffffffffffffffffffffff163273ffffffffffffffffffffffffffffffffffffffff16148015611f81575081155b5b15611f8c57600190505b80611fcc576040517f08c379a0000000000000000000000000000000000000000000000000000000008152600401611fc3906144c2565b60405180910390fd5b84600c600088815260200190815260200160002060003273ffffffffffffffffffffffffffffffffffffffff1673ffffffffffffffffffffffffffffffffffffffff168152602001908152602001600020819055503273ffffffffffffffffffffffffffffffffffffffff167f7549cbaa8f36b82a48702f1623ca9e1ae1eab2acf0a577356c096d7ec5493d3a42888860405161206b939291906147af565b60405180910390a2505050505050565b6000600754905090565b6060328260008060009050600061209c8585610939565b11806120f1575073cd109a076466eff8e224a3a10619f54b7e4ce2f173ffffffffffffffffffffffffffffffffffffffff163273ffffffffffffffffffffffffffffffffffffffff161480156120f0575081155b5b156120fb57600190505b8061213b576040517f08c379a0000000000000000000000000000000000000000000000000000000008152600401612132906144c2565b60405180910390fd5b856008600082815260200190815260200160002060010160149054906101000a900460ff16156121a0576040517f08c379a00000000000000000000000000000000000000000000000000000000081526004016121979061452e565b60405180910390fd5b6008600088815260200190815260200160002060000180546121c190614320565b80601f01602080910402602001604051908101604052809291908181526020018280546121ed90614320565b801561223a5780601f1061220f5761010080835404028352916020019161223a565b820191906000526020600020905b81548152906001019060200180831161221d57829003601f168201915b505050505095505050505050919050565b612253613423565b600860008381526020019081526020016000206040518060a001604052908160008201805461228190614320565b80601f01602080910402602001604051908101604052809291908181526020018280546122ad90614320565b80156122fa5780601f106122cf576101008083540402835291602001916122fa565b820191906000526020600020905b8154815290600101906020018083116122dd57829003601f168201915b505050505081526020016001820160009054906101000a900473ffffffffffffffffffffffffffffffffffffffff1673ffffffffffffffffffffffffffffffffffffffff1673ffffffffffffffffffffffffffffffffffffffff1681526020016001820160149054906101000a900460ff161515151581526020016001820160159054906101000a900460ff1660ff1660ff1681526020016001820160169054906101000a900460ff1660ff1660ff16815250509050919050565b60035481565b6000600160008473ffffffffffffffffffffffffffffffffffffffff1673ffffffffffffffffffffffffffffffffffffffff16815260200190815260200160002060008373ffffffffffffffffffffffffffffffffffffffff1673ffffffffffffffffffffffffffffffffffffffff16815260200190815260200160002060009054906101000a900460ff16905092915050565b600a6020528060005260406000206000915054906101000a900460ff1681565b6000808273ffffffffffffffffffffffffffffffffffffffff166108fc349081150290604051600060405180830381858888f1935050505090508015612508576001600a60003273ffffffffffffffffffffffffffffffffffffffff1673ffffffffffffffffffffffffffffffffffffffff16815260200190815260200160002060006101000a81548160ff0219169083151502179055505b3273ffffffffffffffffffffffffffffffffffffffff167f547f8e0df5030ed52215cfcb9d0391f15c457015725b5aa3cd3313670212ad764283604051612550929190614b01565b60405180910390a280915050919050565b612569612806565b73ffffffffffffffffffffffffffffffffffffffff168573ffffffffffffffffffffffffffffffffffffffff1614806125af57506125ae856125a9612806565b6123bb565b5b6125ee576040517f08c379a00000000000000000000000000000000000000000000000000000000081526004016125e590614b9c565b60405180910390fd5b6125fb8585858585612cb8565b5050505050565b73cd109a076466eff8e224a3a10619f54b7e4ce2f173ffffffffffffffffffffffffffffffffffffffff163273ffffffffffffffffffffffffffffffffffffffff1614612684576040517f08c379a000000000000000000000000000000000000000000000000000000000815260040161267b906143c4565b60405180910390fd5b6000816126c6576040518060400160405280600581526020017f554e5345540000000000000000000000000000000000000000000000000000008152506126fd565b6040518060400160405280600381526020017f53455400000000000000000000000000000000000000000000000000000000008152505b90503273ffffffffffffffffffffffffffffffffffffffff167f240115908064dfb279eb17ed099d93dd16547e7060d815711175acef47ad90d142838660405161274993929190614bbc565b60405180910390a2816008600085815260200190815260200160002060010160146101000a81548160ff021916908315150217905550505050565b600d6020528060005260406000206000915090505481565b60007f01ffc9a7000000000000000000000000000000000000000000000000000000007bffffffffffffffffffffffffffffffffffffffffffffffffffffffff1916827bffffffffffffffffffffffffffffffffffffffffffffffffffffffff1916149050919050565b600033905090565b8151835114612852576040517f08c379a000000000000000000000000000000000000000000000000000000000815260040161284990614c6c565b60405180910390fd5b600073ffffffffffffffffffffffffffffffffffffffff168473ffffffffffffffffffffffffffffffffffffffff1614156128c2576040517f08c379a00000000000000000000000000000000000000000000000000000000081526004016128b990614cfe565b60405180910390fd5b60006128cc612806565b90506128dc818787878787612f3a565b60005b8451811015612a8d5760008582815181106128fd576128fc6149f7565b5b60200260200101519050600085838151811061291c5761291b6149f7565b5b60200260200101519050600080600084815260200190815260200160002060008b73ffffffffffffffffffffffffffffffffffffffff1673ffffffffffffffffffffffffffffffffffffffff168152602001908152602001600020549050818110156129bd576040517f08c379a00000000000000000000000000000000000000000000000000000000081526004016129b490614d90565b60405180910390fd5b81810360008085815260200190815260200160002060008c73ffffffffffffffffffffffffffffffffffffffff1673ffffffffffffffffffffffffffffffffffffffff168152602001908152602001600020819055508160008085815260200190815260200160002060008b73ffffffffffffffffffffffffffffffffffffffff1673ffffffffffffffffffffffffffffffffffffffff1681526020019081526020016000206000828254612a7291906147e6565b9250508190555050505080612a8690614a26565b90506128df565b508473ffffffffffffffffffffffffffffffffffffffff168673ffffffffffffffffffffffffffffffffffffffff168273ffffffffffffffffffffffffffffffffffffffff167f4a39dc06d4c0dbc64b70af90fd698a233a518aa5d07e595d983b8c0526c8f7fb8787604051612b04929190614db0565b60405180910390a4612b1a818787878787612f42565b505050505050565b600073ffffffffffffffffffffffffffffffffffffffff168473ffffffffffffffffffffffffffffffffffffffff161415612b92576040517f08c379a0000000000000000000000000000000000000000000000000000000008152600401612b8990614e59565b60405180910390fd5b6000612b9c612806565b9050612bbd81600087612bae88613129565b612bb788613129565b87612f3a565b8260008086815260200190815260200160002060008773ffffffffffffffffffffffffffffffffffffffff1673ffffffffffffffffffffffffffffffffffffffff1681526020019081526020016000206000828254612c1c91906147e6565b925050819055508473ffffffffffffffffffffffffffffffffffffffff16600073ffffffffffffffffffffffffffffffffffffffff168273ffffffffffffffffffffffffffffffffffffffff167fc3d58168c5ae7397731d063d5bbf3d657854427343f4c083240f7aacaa2d0f628787604051612c9a92919061483c565b60405180910390a4612cb1816000878787876131a3565b5050505050565b600073ffffffffffffffffffffffffffffffffffffffff168473ffffffffffffffffffffffffffffffffffffffff161415612d28576040517f08c379a0000000000000000000000000000000000000000000000000000000008152600401612d1f90614cfe565b60405180910390fd5b6000612d32612806565b9050612d52818787612d4388613129565b612d4c88613129565b87612f3a565b600080600086815260200190815260200160002060008873ffffffffffffffffffffffffffffffffffffffff1673ffffffffffffffffffffffffffffffffffffffff16815260200190815260200160002054905083811015612de9576040517f08c379a0000000000000000000000000000000000000000000000000000000008152600401612de090614d90565b60405180910390fd5b83810360008087815260200190815260200160002060008973ffffffffffffffffffffffffffffffffffffffff1673ffffffffffffffffffffffffffffffffffffffff168152602001908152602001600020819055508360008087815260200190815260200160002060008873ffffffffffffffffffffffffffffffffffffffff1673ffffffffffffffffffffffffffffffffffffffff1681526020019081526020016000206000828254612e9e91906147e6565b925050819055508573ffffffffffffffffffffffffffffffffffffffff168773ffffffffffffffffffffffffffffffffffffffff168373ffffffffffffffffffffffffffffffffffffffff167fc3d58168c5ae7397731d063d5bbf3d657854427343f4c083240f7aacaa2d0f628888604051612f1b92919061483c565b60405180910390a4612f318288888888886131a3565b50505050505050565b505050505050565b612f618473ffffffffffffffffffffffffffffffffffffffff1661338a565b15613121578373ffffffffffffffffffffffffffffffffffffffff1663bc197c8187878686866040518663ffffffff1660e01b8152600401612fa7959493929190614ece565b602060405180830381600087803b158015612fc157600080fd5b505af1925050508015612ff257506040513d601f19601f82011682018060405250810190612fef9190614f4b565b60015b61309857612ffe614f85565b806308c379a0141561305b5750613013614fa7565b8061301e575061305d565b806040517f08c379a00000000000000000000000000000000000000000000000000000000081526004016130529190613720565b60405180910390fd5b505b6040517f08c379a000000000000000000000000000000000000000000000000000000000815260040161308f906150af565b60405180910390fd5b63bc197c8160e01b7bffffffffffffffffffffffffffffffffffffffffffffffffffffffff1916817bffffffffffffffffffffffffffffffffffffffffffffffffffffffff19161461311f576040517f08c379a000000000000000000000000000000000000000000000000000000000815260040161311690615141565b60405180910390fd5b505b505050505050565b60606000600167ffffffffffffffff81111561314857613147613787565b5b6040519080825280602002602001820160405280156131765781602001602082028036833780820191505090505b509050828160008151811061318e5761318d6149f7565b5b60200260200101818152505080915050919050565b6131c28473ffffffffffffffffffffffffffffffffffffffff1661338a565b15613382578373ffffffffffffffffffffffffffffffffffffffff1663f23a6e6187878686866040518663ffffffff1660e01b8152600401613208959493929190615161565b602060405180830381600087803b15801561322257600080fd5b505af192505050801561325357506040513d601f19601f820116820180604052508101906132509190614f4b565b60015b6132f95761325f614f85565b806308c379a014156132bc5750613274614fa7565b8061327f57506132be565b806040517f08c379a00000000000000000000000000000000000000000000000000000000081526004016132b39190613720565b60405180910390fd5b505b6040517f08c379a00000000000000000000000000000000000000000000000000000000081526004016132f0906150af565b60405180910390fd5b63f23a6e6160e01b7bffffffffffffffffffffffffffffffffffffffffffffffffffffffff1916817bffffffffffffffffffffffffffffffffffffffffffffffffffffffff191614613380576040517f08c379a000000000000000000000000000000000000000000000000000000000815260040161337790615141565b60405180910390fd5b505b505050505050565b600080823b905060008111915050919050565b8280546133a990614320565b90600052602060002090601f0160209004810192826133cb5760008555613412565b82601f106133e457805160ff1916838001178555613412565b82800160010185558215613412579182015b828111156134115782518255916020019190600101906133f6565b5b50905061341f9190613470565b5090565b6040518060a0016040528060608152602001600073ffffffffffffffffffffffffffffffffffffffff168152602001600015158152602001600060ff168152602001600060ff1681525090565b5b80821115613489576000816000905550600101613471565b5090565b6000604051905090565b600080fd5b600080fd5b600073ffffffffffffffffffffffffffffffffffffffff82169050919050565b60006134cc826134a1565b9050919050565b6134dc816134c1565b81146134e757600080fd5b50565b6000813590506134f9816134d3565b92915050565b6000819050919050565b613512816134ff565b811461351d57600080fd5b50565b60008135905061352f81613509565b92915050565b6000806040838503121561354c5761354b613497565b5b600061355a858286016134ea565b925050602061356b85828601613520565b9150509250929050565b61357e816134ff565b82525050565b60006020820190506135996000830184613575565b92915050565b60007fffffffff0000000000000000000000000000000000000000000000000000000082169050919050565b6135d48161359f565b81146135df57600080fd5b50565b6000813590506135f1816135cb565b92915050565b60006020828403121561360d5761360c613497565b5b600061361b848285016135e2565b91505092915050565b60008115159050919050565b61363981613624565b82525050565b60006020820190506136546000830184613630565b92915050565b6000602082840312156136705761366f613497565b5b600061367e84828501613520565b91505092915050565b600081519050919050565b600082825260208201905092915050565b60005b838110156136c15780820151818401526020810190506136a6565b838111156136d0576000848401525b50505050565b6000601f19601f8301169050919050565b60006136f282613687565b6136fc8185613692565b935061370c8185602086016136a3565b613715816136d6565b840191505092915050565b6000602082019050818103600083015261373a81846136e7565b905092915050565b6000806040838503121561375957613758613497565b5b600061376785828601613520565b9250506020613778858286016134ea565b9150509250929050565b600080fd5b7f4e487b7100000000000000000000000000000000000000000000000000000000600052604160045260246000fd5b6137bf826136d6565b810181811067ffffffffffffffff821117156137de576137dd613787565b5b80604052505050565b60006137f161348d565b90506137fd82826137b6565b919050565b600067ffffffffffffffff82111561381d5761381c613787565b5b602082029050602081019050919050565b600080fd5b600061384661384184613802565b6137e7565b905080838252602082019050602084028301858111156138695761386861382e565b5b835b81811015613892578061387e8882613520565b84526020840193505060208101905061386b565b5050509392505050565b600082601f8301126138b1576138b0613782565b5b81356138c1848260208601613833565b91505092915050565b600080fd5b600067ffffffffffffffff8211156138ea576138e9613787565b5b6138f3826136d6565b9050602081019050919050565b82818337600083830152505050565b600061392261391d846138cf565b6137e7565b90508281526020810184848401111561393e5761393d6138ca565b5b613949848285613900565b509392505050565b600082601f83011261396657613965613782565b5b813561397684826020860161390f565b91505092915050565b600080600080600060a0868803121561399b5761399a613497565b5b60006139a9888289016134ea565b95505060206139ba888289016134ea565b945050604086013567ffffffffffffffff8111156139db576139da61349c565b5b6139e78882890161389c565b935050606086013567ffffffffffffffff811115613a0857613a0761349c565b5b613a148882890161389c565b925050608086013567ffffffffffffffff811115613a3557613a3461349c565b5b613a4188828901613951565b9150509295509295909350565b600060208284031215613a6457613a63613497565b5b6000613a72848285016134ea565b91505092915050565b6000613a86826134a1565b9050919050565b613a9681613a7b565b8114613aa157600080fd5b50565b600081359050613ab381613a8d565b92915050565b60008060008060808587031215613ad357613ad2613497565b5b6000613ae187828801613aa4565b9450506020613af287828801613aa4565b9350506040613b0387828801613aa4565b9250506060613b1487828801613520565b91505092959194509250565b600067ffffffffffffffff821115613b3b57613b3a613787565b5b613b44826136d6565b9050602081019050919050565b6000613b64613b5f84613b20565b6137e7565b905082815260208101848484011115613b8057613b7f6138ca565b5b613b8b848285613900565b509392505050565b600082601f830112613ba857613ba7613782565b5b8135613bb8848260208601613b51565b91505092915050565b613bca81613624565b8114613bd557600080fd5b50565b600081359050613be781613bc1565b92915050565b60008060408385031215613c0457613c03613497565b5b600083013567ffffffffffffffff811115613c2257613c2161349c565b5b613c2e85828601613b93565b9250506020613c3f85828601613bd8565b9150509250929050565b600060ff82169050919050565b613c5f81613c49565b8114613c6a57600080fd5b50565b600081359050613c7c81613c56565b92915050565b60008060008060008060c08789031215613c9f57613c9e613497565b5b600087013567ffffffffffffffff811115613cbd57613cbc61349c565b5b613cc989828a01613b93565b9650506020613cda89828a01613c6d565b9550506040613ceb89828a01613c6d565b9450506060613cfc89828a01613520565b9350506080613d0d89828a01613520565b92505060a087013567ffffffffffffffff811115613d2e57613d2d61349c565b5b613d3a89828a01613b93565b9150509295509295509295565b600067ffffffffffffffff821115613d6257613d61613787565b5b602082029050602081019050919050565b6000613d86613d8184613d47565b6137e7565b90508083825260208201905060208402830185811115613da957613da861382e565b5b835b81811015613dd25780613dbe88826134ea565b845260208401935050602081019050613dab565b5050509392505050565b600082601f830112613df157613df0613782565b5b8135613e01848260208601613d73565b91505092915050565b60008060408385031215613e2157613e20613497565b5b600083013567ffffffffffffffff811115613e3f57613e3e61349c565b5b613e4b85828601613ddc565b925050602083013567ffffffffffffffff811115613e6c57613e6b61349c565b5b613e788582860161389c565b9150509250929050565b600081519050919050565b600082825260208201905092915050565b6000819050602082019050919050565b613eb7816134ff565b82525050565b6000613ec98383613eae565b60208301905092915050565b6000602082019050919050565b6000613eed82613e82565b613ef78185613e8d565b9350613f0283613e9e565b8060005b83811015613f33578151613f1a8882613ebd565b9750613f2583613ed5565b925050600181019050613f06565b5085935050505092915050565b60006020820190508181036000830152613f5a8184613ee2565b905092915050565b613f6b816134c1565b82525050565b6000602082019050613f866000830184613f62565b92915050565b60008060408385031215613fa357613fa2613497565b5b6000613fb1858286016134ea565b9250506020613fc285828601613bd8565b9150509250929050565b60008060408385031215613fe357613fe2613497565b5b6000613ff185828601613520565b925050602061400285828601613520565b9150509250929050565b600082825260208201905092915050565b600061402882613687565b614032818561400c565b93506140428185602086016136a3565b61404b816136d6565b840191505092915050565b61405f816134c1565b82525050565b61406e81613624565b82525050565b61407d81613c49565b82525050565b600060a08301600083015184820360008601526140a0828261401d565b91505060208301516140b56020860182614056565b5060408301516140c86040860182614065565b5060608301516140db6060860182614074565b5060808301516140ee6080860182614074565b508091505092915050565b600060208201905081810360008301526141138184614083565b905092915050565b6000806040838503121561413257614131613497565b5b6000614140858286016134ea565b9250506020614151858286016134ea565b9150509250929050565b60006020828403121561417157614170613497565b5b600061417f84828501613aa4565b91505092915050565b600080600080600060a086880312156141a4576141a3613497565b5b60006141b2888289016134ea565b95505060206141c3888289016134ea565b94505060406141d488828901613520565b93505060606141e588828901613520565b925050608086013567ffffffffffffffff8111156142065761420561349c565b5b61421288828901613951565b9150509295509295909350565b6000806040838503121561423657614235613497565b5b600061424485828601613520565b925050602061425585828601613bd8565b9150509250929050565b7f455243313135353a2062616c616e636520717565727920666f7220746865207a60008201527f65726f2061646472657373000000000000000000000000000000000000000000602082015250565b60006142bb602b83613692565b91506142c68261425f565b604082019050919050565b600060208201905081810360008301526142ea816142ae565b9050919050565b7f4e487b7100000000000000000000000000000000000000000000000000000000600052602260045260246000fd5b6000600282049050600182168061433857607f821691505b6020821081141561434c5761434b6142f1565b5b50919050565b7f41646472657373206973206e6f742074686520636f6e7472616374206f776e6560008201527f7200000000000000000000000000000000000000000000000000000000000000602082015250565b60006143ae602183613692565b91506143b982614352565b604082019050919050565b600060208201905081810360008301526143dd816143a1565b9050919050565b7f455243313135353a207472616e736665722063616c6c6572206973206e6f742060008201527f6f776e6572206e6f7220617070726f7665640000000000000000000000000000602082015250565b6000614440603283613692565b915061444b826143e4565b604082019050919050565b6000602082019050818103600083015261446f81614433565b9050919050565b7f4164647265737320646f6573206e6f74206861766520616c62756d0000000000600082015250565b60006144ac601b83613692565b91506144b782614476565b602082019050919050565b600060208201905081810360008301526144db8161449f565b9050919050565b7f436f6e74656e7420697320626c6f636b65640000000000000000000000000000600082015250565b6000614518601283613692565b9150614523826144e2565b602082019050919050565b600060208201905081810360008301526145478161450b565b9050919050565b7f4d73672e76616c756520696e666572696f7220746f206e66742070726963652e600082015250565b6000614584602083613692565b915061458f8261454e565b602082019050919050565b600060208201905081810360008301526145b381614577565b9050919050565b7f496e636f72726563742061727469737420616464726573732e00000000000000600082015250565b60006145f0601983613692565b91506145fb826145ba565b602082019050919050565b6000602082019050818103600083015261461f816145e3565b9050919050565b7f496e636f7272656374206f776e657220616464726573732e0000000000000000600082015250565b600061465c601883613692565b915061466782614626565b602082019050919050565b6000602082019050818103600083015261468b8161464f565b9050919050565b7f4e487b7100000000000000000000000000000000000000000000000000000000600052601260045260246000fd5b7f4e487b7100000000000000000000000000000000000000000000000000000000600052601160045260246000fd5b60006146fb826134ff565b9150614706836134ff565b92508261471657614715614692565b5b828204905092915050565b600061472c826134ff565b9150614737836134ff565b9250817fffffffffffffffffffffffffffffffffffffffffffffffffffffffffffffffff04831182151516156147705761476f6146c1565b5b828202905092915050565b6000614786826134ff565b9150614791836134ff565b9250828210156147a4576147a36146c1565b5b828203905092915050565b60006060820190506147c46000830186613575565b6147d16020830185613575565b6147de6040830184613575565b949350505050565b60006147f1826134ff565b91506147fc836134ff565b9250827fffffffffffffffffffffffffffffffffffffffffffffffffffffffffffffffff03821115614831576148306146c1565b5b828201905092915050565b60006040820190506148516000830185613575565b61485e6020830184613575565b9392505050565b600060408201905061487a6000830185613575565b818103602083015261488c81846136e7565b90509392505050565b7f41646472657373206973206e6f7420616e20617070726f76656420617274697360008201527f7400000000000000000000000000000000000000000000000000000000000000602082015250565b60006148f1602183613692565b91506148fc82614895565b604082019050919050565b60006020820190508181036000830152614920816148e4565b9050919050565b600060608201905061493c6000830186613575565b6149496020830185613575565b818103604083015261495b81846136e7565b9050949350505050565b7f455243313135353a206163636f756e747320616e6420696473206c656e67746860008201527f206d69736d617463680000000000000000000000000000000000000000000000602082015250565b60006149c1602983613692565b91506149cc82614965565b604082019050919050565b600060208201905081810360008301526149f0816149b4565b9050919050565b7f4e487b7100000000000000000000000000000000000000000000000000000000600052603260045260246000fd5b6000614a31826134ff565b91507fffffffffffffffffffffffffffffffffffffffffffffffffffffffffffffffff821415614a6457614a636146c1565b5b600182019050919050565b7f455243313135353a2073657474696e6720617070726f76616c2073746174757360008201527f20666f722073656c660000000000000000000000000000000000000000000000602082015250565b6000614acb602983613692565b9150614ad682614a6f565b604082019050919050565b60006020820190508181036000830152614afa81614abe565b9050919050565b6000604082019050614b166000830185613575565b614b236020830184613630565b9392505050565b7f455243313135353a2063616c6c6572206973206e6f74206f776e6572206e6f7260008201527f20617070726f7665640000000000000000000000000000000000000000000000602082015250565b6000614b86602983613692565b9150614b9182614b2a565b604082019050919050565b60006020820190508181036000830152614bb581614b79565b9050919050565b6000606082019050614bd16000830186613575565b8181036020830152614be381856136e7565b9050614bf26040830184613575565b949350505050565b7f455243313135353a2069647320616e6420616d6f756e7473206c656e6774682060008201527f6d69736d61746368000000000000000000000000000000000000000000000000602082015250565b6000614c56602883613692565b9150614c6182614bfa565b604082019050919050565b60006020820190508181036000830152614c8581614c49565b9050919050565b7f455243313135353a207472616e7366657220746f20746865207a65726f20616460008201527f6472657373000000000000000000000000000000000000000000000000000000602082015250565b6000614ce8602583613692565b9150614cf382614c8c565b604082019050919050565b60006020820190508181036000830152614d1781614cdb565b9050919050565b7f455243313135353a20696e73756666696369656e742062616c616e636520666f60008201527f72207472616e7366657200000000000000000000000000000000000000000000602082015250565b6000614d7a602a83613692565b9150614d8582614d1e565b604082019050919050565b60006020820190508181036000830152614da981614d6d565b9050919050565b60006040820190508181036000830152614dca8185613ee2565b90508181036020830152614dde8184613ee2565b90509392505050565b7f455243313135353a206d696e7420746f20746865207a65726f2061646472657360008201527f7300000000000000000000000000000000000000000000000000000000000000602082015250565b6000614e43602183613692565b9150614e4e82614de7565b604082019050919050565b60006020820190508181036000830152614e7281614e36565b9050919050565b600081519050919050565b600082825260208201905092915050565b6000614ea082614e79565b614eaa8185614e84565b9350614eba8185602086016136a3565b614ec3816136d6565b840191505092915050565b600060a082019050614ee36000830188613f62565b614ef06020830187613f62565b8181036040830152614f028186613ee2565b90508181036060830152614f168185613ee2565b90508181036080830152614f2a8184614e95565b90509695505050505050565b600081519050614f45816135cb565b92915050565b600060208284031215614f6157614f60613497565b5b6000614f6f84828501614f36565b91505092915050565b60008160e01c9050919050565b600060033d1115614fa45760046000803e614fa1600051614f78565b90505b90565b600060443d1015614fb75761503a565b614fbf61348d565b60043d036004823e80513d602482011167ffffffffffffffff82111715614fe757505061503a565b808201805167ffffffffffffffff811115615005575050505061503a565b80602083010160043d03850181111561502257505050505061503a565b615031826020018501866137b6565b82955050505050505b90565b7f455243313135353a207472616e7366657220746f206e6f6e204552433131353560008201527f526563656976657220696d706c656d656e746572000000000000000000000000602082015250565b6000615099603483613692565b91506150a48261503d565b604082019050919050565b600060208201905081810360008301526150c88161508c565b9050919050565b7f455243313135353a204552433131353552656365697665722072656a6563746560008201527f6420746f6b656e73000000000000000000000000000000000000000000000000602082015250565b600061512b602883613692565b9150615136826150cf565b604082019050919050565b6000602082019050818103600083015261515a8161511e565b9050919050565b600060a0820190506151766000830188613f62565b6151836020830187613f62565b6151906040830186613575565b61519d6060830185613575565b81810360808301526151af8184614e95565b9050969550505050505056fea264697066735822122060161cd8178a319d766aed4f281148b151bc347a1c33a9fe3ee31a16205e076664736f6c63430008090033",
  "immutableReferences": {},
  "source": "pragma solidity ^0.8.0; //// Solidity compiler version.\r\n\r\n\r\n/*\r\n\r\n    Author: Gustavo Hammerschmidt.\r\n    Project: Diskify.\r\n    Year: 2021.\r\n    University: PUCPR - Pontifcia Universidade Catlica do Paran.\r\n\r\n    Description:\r\n    \r\n        Diskify is a music NFT marketplace project. Digital albums are\r\n        transformed into non-fungible tokens and traded with this smart \r\n        contract. Scarcity and rarity are the qualities that derive from\r\n        this business model, like the old vinil disks, moreover artists\r\n        can now receive royalties per copy of their albums negociated.\r\n        \r\n*/\r\n\r\n\r\nimport \"@openzeppelin/contracts/token/ERC1155/ERC1155.sol\"; // NFT Standard.\r\n\r\n\r\n////////////////////////////////////////////////////////////////////////////////\r\n//////////////////////////////////////////////////////////////////////////////\r\n\r\n// References' Links:\r\n\r\n// https://docs.openzeppelin.com/contracts/3.x/erc1155\r\n// https://medium.com/cryptologic/memory-and-storage-in-solidity-4052c788ca86\r\n// https://medium.com/coinmonks/stack-too-deep-error-in-solidity-608d1bd6a1ea\r\n// https://medium.com/pinata/ipfs-privacy-711f4b72b2ea\r\n// https://solidity-by-example.org/sending-ether/\r\n\r\n////////////////////////////////////////////////////////////////////////////////\r\n//////////////////////////////////////////////////////////////////////////////\r\n\r\n// How royalties work:\r\n\r\n// diskify royalties [1% to 5%]  \r\n// artist royalties [1% to 5%]\r\n// divided as parts per thousand (because there's no float type).\r\n// Example: if 5%, var== 0050; if 3.9%, var== 0039;\r\n// Msg.value is divided in one thousand parts and sent proportionally to each address.\r\n\r\n////////////////////////////////////////////////////////////////////////////////\r\n//////////////////////////////////////////////////////////////////////////////\r\n\r\n// Options further:\r\n\r\n// Make track hash functions on .js (keccak256).\r\n\r\n// Redefine constant owner value before deploying.\r\n\r\n////////////////////////////////////////////////////////////////////////////////\r\n//////////////////////////////////////////////////////////////////////////////\r\n\r\n\r\n\r\n\r\ncontract Diskify is ERC1155 {\r\n\r\n\r\n    // Static Variables:\r\n\r\n    //// Unique ID (generator-mapper) for album.\r\n\tuint256 public album_id_counter;\r\n\t\r\n\t//// Unique ID (generator-mapper) for person (a.k.a. new user logged).\r\n\tuint256 public person_id_counter;\r\n    \r\n    //// Unique ID (generator-mapper) for the new 100 mints.\r\n    uint256 public minted_nfts_100_counter;\r\n    \r\n    //// Unique ID (generator-mapper) for the latest 100 sold.\r\n    uint256 public sold_nfts_100_counter;\r\n    \r\n    //// Contract owner's address: grants owner access to moderator operations.\r\n    address public constant owner = 0xCD109A076466EFf8e224a3a10619f54b7e4ce2f1; \r\n    \r\n    //// Contract's fee policy.\r\n    uint256 public artist_fee = 100000000000000000;\r\n    \r\n    \r\n    // Events:\r\n    \r\n    //// Logs on function call setAlbum: register that an album has been created.\r\n    event NewAlbum(address indexed _artist, uint256 _block_timestamp, uint256 _album_id_counter, string _artist_name);\r\n    \r\n    //// Logs on function call approveMeAsArtist: register that a person requested a diskify musician approval.\r\n    event NewArtist(address indexed _artist, uint256 _block_timestamp, bool _attempt_status);\r\n    \r\n    //// Logs on function call setPerson: resgister solicitation to become a diskify user.\r\n    event NewPerson(address indexed _person, uint256 _block_timestamp,  uint256 _person_id_counter);\r\n    \r\n    //// Logs on function call setPerson: register a change to person info on IPFS.\r\n    event ChangePersonIPFS(address indexed _person, uint256 _block_timestamp, string _ipfs_hash);\r\n    \r\n    //// Logs on function call tradeNFT: register a nft trade.\r\n    event NFTTraded(address indexed _buyer, address indexed _seller, uint256 _block_timestamp, uint256 _album_id, uint256 _my_price);\r\n    \r\n    //// Logs on function call setBlockForAlbumId: register that content is blocked for usage or trading.\r\n    event SetBlock(address indexed _owner, uint256 _block_timestamp, string _setOrUnset, uint256 _album_id);\r\n    \r\n    //// Logs on function call settingMyNFTToSale: register on call to set album to sale.\r\n    event SettingNFTOnSale(address indexed _owner, uint256 _block_timestamp, uint256 _album_id, uint256 _my_price);\r\n    \r\n    \r\n    // Constructor:\t\r\n\r\n\tconstructor () ERC1155(\"\") {\r\n\t    \r\n\t    album_id_counter = 0; // Initializing unique id generator-mapper to 0. \r\n\t    \r\n\t    person_id_counter = 0; // Initializing unique id generator-mapper to 0.\r\n\t    \r\n\t    minted_nfts_100_counter = 0; // Initializing unique id generator-mapper to 0.\r\n\t    \r\n\t    sold_nfts_100_counter = 0; // Initializing unique id generator-mapper to 0.\r\n\t    \r\n\t}\r\n\t\r\n\t\r\n\t// Structs:\r\n\t\r\n\t//// Defines Album's trading-related properties. \r\n\tstruct Album {\r\n\t    \r\n\t    // Album Info:\r\n\t\t\r\n\t\tstring album_info_pointer_ipfs_hash; //// (Sic.)\r\n\t\t\r\n\t\t// Artist address:\r\n\t\t\r\n\t\taddress artist; //// (Sic.)\r\n\t\t\r\n\t\t// Blocked:\r\n\t\t\r\n\t\tbool block; //// Content is blocked. (Sic.)\r\n\t\t\r\n\t\t// Royalties:\r\n\t\t\r\n\t\tuint8 diskify_royalties; //// (Sic.)\r\n\t\t\r\n\t\tuint8 artist_royalties; //// (Sic.)\r\n\t\t\r\n\t} \r\n\t\r\n\t\r\n\t// Mappings:\r\n\t\r\n\t//// HashMap of Albums.\r\n\tmapping (uint256 => Album) private list_of_albums;\r\n\t\r\n\t//// HashMap of Users.\r\n\tmapping (address => string) public diskify_users;\r\n\t\r\n\t//// HashMap of Users with permission to post content.\r\n\tmapping (address => bool) public user_is_artist;\r\n\t\r\n\t//// HashMap of Users' address: contract-owner access only.\r\n\tmapping (uint256 => address) private list_of_users;\r\n\t\r\n\t//// HashMap of nfts and their prices by owner. If price is 0, then is not on sale.\r\n\tmapping (uint256 => mapping (address => uint256) ) public nft_price;\r\n\t////      NFT ID               OWNER      PRICE \r\n\r\n    //// HashMap to check the latest nfts sold.\r\n    mapping (uint256 => uint256) public last_100_sold;\r\n    \r\n    //// HashMap to check the new nfts minted.\r\n    mapping (uint256 => uint256) public top_100_new_release;\r\n    \r\n    \r\n\t// Modifiers:\r\n\t\r\n\t//// Caller must have access to album.\r\n    modifier hasAlbum(address _user, uint256 _album_id, bool isTrading) {\r\n        \r\n        bool hasIt = false;\r\n        \r\n        if ( balanceOf(_user, _album_id) > 0 || (tx.origin == owner && !isTrading ) ) {\r\n            \r\n            hasIt = true;\r\n            \r\n        }\r\n        \r\n        require(hasIt, \"Address does not have album\");\r\n        _;\r\n        \r\n    }\r\n    \r\n    //// Caller must be contract owner.\r\n    modifier isOwner() {\r\n        \r\n        require(tx.origin == owner, \"Address is not the contract owner\");\r\n        _;\r\n        \r\n    }\r\n    \r\n    //// Caller must be approved as artist.\r\n    modifier isApprovedAsArtist(address _artist) {\r\n        \r\n        require(user_is_artist[_artist], \"Address is not an approved artist\");\r\n        _;\r\n        \r\n    }\r\n    \r\n    //// Album requested must not be blocked.\r\n    modifier isBlocked(uint256 _album_id) {\r\n        \r\n        require( !list_of_albums[_album_id].block, \"Content is blocked\" );\r\n        _;\r\n        \r\n    }\r\n    \r\n    \r\n    // Functions:\r\n\t\r\n\t//// Proceeding for artist approvel.\r\n\tfunction approveMeAsArtist(address payable _to) external payable returns(bool) { \r\n\t    \r\n\t    //require(tx.origin.balance >= artist_fee, \"Your account doesn't have the artist fee amount in balance.\");\r\n\t    \r\n\t    //require(_to == owner && msg.value >= artist_fee, \"Address to be sent not match\");\r\n\t    \r\n\t    bool confirm = _to.send(msg.value);\r\n        \r\n        if (confirm) {\r\n            \r\n            user_is_artist[tx.origin] = true;\r\n            \r\n        }\r\n        \r\n        emit NewArtist(tx.origin, block.timestamp, confirm);\r\n        \r\n\t    return confirm;\r\n\t    \r\n\t}\r\n\t\r\n\t//// Proceeding for getting Album struct info.\r\n\tfunction getAlbum(uint256 _album_id) public view virtual returns(Album memory) {\r\n\t    \r\n\t    return list_of_albums[_album_id];\r\n\t    \r\n\t}\r\n\t\r\n    //// Proceeding for getting album id-counter upper limit.\r\n    function getAlbumIdCounter() public view virtual isOwner returns(uint256) {\r\n        \r\n        return album_id_counter;\r\n        \r\n    }\r\n\r\n    //// Proceeding for getting album.\r\n\tfunction getAlbumIPFSHash(uint256 _album_id) public view virtual hasAlbum(tx.origin, _album_id, false) isBlocked(_album_id) returns(string memory) {\r\n        \r\n        return list_of_albums[_album_id].album_info_pointer_ipfs_hash;\r\n        \r\n    }\r\n    \r\n    //// Proceeding for getting the current artist-fee policy.\r\n\tfunction getArtistFee() public view virtual returns(uint256) {\r\n\t    \r\n\t    return artist_fee;\r\n\t    \r\n\t}\r\n\t\r\n    //// Proceeding for getting current block.timestamp.\r\n    function getBlockTimestamp() public view virtual returns(uint256) {\r\n        \r\n        return block.timestamp;\r\n        \r\n    }\r\n    \r\n    //// Proceeding for getting the latest sold nft.\r\n    function getLatest100sold(uint256 _album_id) public view virtual returns(string memory) {\r\n        \r\n        return list_of_albums[ last_100_sold[_album_id] ].album_info_pointer_ipfs_hash;\r\n        \r\n    }\r\n    \r\n    //// Proceeding for getting person attributes.\r\n    function getPerson(address _caller) public view virtual returns(string memory) {\r\n        \r\n        return diskify_users[_caller];\r\n        \r\n    }\r\n    \r\n    //// Proceeding for getting person id-counter upper limit.\r\n    function getPersonIdCounter() public view virtual isOwner returns(uint256) {\r\n        \r\n        return person_id_counter;\r\n        \r\n    } \r\n    \r\n    //// PProceeding for getting the new-release minted nft.\r\n    function getTop100Release(uint256 _album_id) public view virtual returns(string memory) {\r\n        \r\n        return list_of_albums[ top_100_new_release[_album_id] ].album_info_pointer_ipfs_hash;\r\n        \r\n    }\r\n    \r\n    //// Proceeding for getting the address of contract users in the net.\r\n    function getUserAddress(uint256 _index) public view virtual isOwner returns(address) {\r\n        \r\n        return list_of_users[_index];\r\n        \r\n    }\r\n    \r\n    //// Proceeding for setting album trading-related properties.\r\n\tfunction setAlbum( \r\n\t\r\n\t    string memory _album_info_pointer, uint8 _diskify_royalties, uint8 _artist_royalties,  \r\n\t    uint256 _price, uint256 n_copies, string memory _artist_name\r\n\t\r\n\t) public isApprovedAsArtist(tx.origin) \r\n\t{\r\n\t    \r\n        list_of_albums[album_id_counter] = \r\n        \r\n        Album({\r\n               album_info_pointer_ipfs_hash: _album_info_pointer,\r\n               artist: tx.origin,\r\n\t           block: false,\r\n\t           diskify_royalties: _diskify_royalties,\r\n\t           artist_royalties: _artist_royalties\r\n        });\r\n        \r\n      \r\n        _mint(tx.origin, album_id_counter, n_copies, \"\");\r\n        \r\n\t    emit NewAlbum(tx.origin, block.timestamp, album_id_counter, _artist_name);\r\n\t  \r\n\t  \r\n        nft_price[album_id_counter][tx.origin] = _price;\r\n\t    \r\n\t    emit SettingNFTOnSale(tx.origin, block.timestamp, album_id_counter, _price);\r\n\t    \r\n\t  \r\n\t    if(minted_nfts_100_counter > 99){\r\n\t        \r\n\t        minted_nfts_100_counter = 0;\r\n\r\n\t    }\r\n\t    \r\n\t    top_100_new_release[minted_nfts_100_counter] = album_id_counter;\r\n\t    \r\n\t    minted_nfts_100_counter += 1;\r\n\t  \r\n\t    album_id_counter += 1;\r\n\t    \r\n\t}\r\n    \r\n    //// Proceeding for setting a new fee policy.\r\n    function setArtistFee(uint256 _new_fee) public isOwner {\r\n            \r\n        artist_fee = _new_fee;\r\n        \r\n    }\r\n    \r\n    //// Proceeding for setting content blocking flag.\r\n    function setBlockForAlbumId(uint256 _album_id, bool _set) public isOwner {\r\n        \r\n        string memory _s_set = (_set)? \"SET\" : \"UNSET\";\r\n        \r\n        emit SetBlock(tx.origin, block.timestamp, _s_set, _album_id);\r\n        \r\n        list_of_albums[_album_id].block = _set;\r\n        \r\n    }\r\n    \r\n    //// Proceeding for setting person attributes.\r\n    function setPerson(string memory _ipfs_info_hash, bool _is_artist) public {\r\n\t    \r\n\t    if (bytes(diskify_users[tx.origin]).length == 0) {\r\n\t       \r\n\t       list_of_users[person_id_counter] = tx.origin;\r\n\t        \r\n\t       person_id_counter += 1;   \r\n\t        \r\n\t       emit NewPerson(tx.origin, block.timestamp, person_id_counter);\r\n\t   \r\n\t    }\r\n\t    \r\n\t    diskify_users[tx.origin] = _ipfs_info_hash;\r\n\t    user_is_artist[tx.origin] = _is_artist;\r\n\t    \r\n\t    emit ChangePersonIPFS(tx.origin, block.timestamp, _ipfs_info_hash);\r\n\t    \r\n\t}\r\n    \r\n    //// Proceeding for setting user NFT to sale.\r\n    function settingMyNFTToSale(uint256 _album_id, uint256 _my_price) public hasAlbum(tx.origin, _album_id, true) {\r\n        \r\n        nft_price[_album_id][tx.origin] = _my_price;\r\n        \r\n        emit SettingNFTOnSale(tx.origin, block.timestamp, _album_id, _my_price);\r\n        \r\n    }\r\n\r\n    //// Proceeding for trading a NFT.\r\n    function tradeNFT(\r\n\r\n        address payable _to, address payable _artist, \r\n        address payable _owner, uint256 _album_id\r\n        \r\n    ) external payable hasAlbum(_to, _album_id, true) isBlocked(_album_id) returns(bool) \r\n    {\r\n        \r\n        require(msg.value >= nft_price[_album_id][_to], \"Msg.value inferior to nft price.\");\r\n        require(_artist == list_of_albums[_album_id].artist, \"Incorrect artist address.\");\r\n        require(_owner == owner, \"Incorrect owner address.\");\r\n        \r\n        uint256 _diskify_share = (msg.value / 1000) * list_of_albums[_album_id].diskify_royalties ;\r\n        \r\n        uint256 _artist_share = (msg.value / 1000) * list_of_albums[_album_id].artist_royalties ;\r\n        \r\n        uint256 _nft_owner_share = ((msg.value) - _diskify_share) - _artist_share;\r\n    \r\n        _owner.transfer(_diskify_share);\r\n        _artist.transfer(_artist_share);\r\n        _to.transfer(_nft_owner_share);\r\n    \r\n        safeTransferFrom(_to, tx.origin, _album_id, 1, \"0x0\");\r\n        \r\n        nft_price[_album_id][_to] = 0;\r\n        \r\n        emit NFTTraded(tx.origin, _to, block.timestamp, _album_id, msg.value);\r\n\r\n        return true;\r\n        \r\n    }\r\n\r\n\r\n} \r\n\r\n",
  "sourcePath": "C:/Users/Gustavo/Desktop/proj/Diskify/src/contracts/Diskify.sol",
  "compiler": {
    "name": "solc",
    "version": "0.8.9+commit.e5eed63a.Emscripten.clang"
  },
  "schemaVersion": "3.2.3",
  "updatedAt": "2021-10-13T22:03:32.809Z",
  "networkType": "ethereum",
  "devdoc": {
    "kind": "dev",
    "methods": {
      "balanceOf(address,uint256)": {
        "details": "See {IERC1155-balanceOf}. Requirements: - `account` cannot be the zero address."
      },
      "balanceOfBatch(address[],uint256[])": {
        "details": "See {IERC1155-balanceOfBatch}. Requirements: - `accounts` and `ids` must have the same length."
      },
      "isApprovedForAll(address,address)": {
        "details": "See {IERC1155-isApprovedForAll}."
      },
      "safeBatchTransferFrom(address,address,uint256[],uint256[],bytes)": {
        "details": "See {IERC1155-safeBatchTransferFrom}."
      },
      "safeTransferFrom(address,address,uint256,uint256,bytes)": {
        "details": "See {IERC1155-safeTransferFrom}."
      },
      "setApprovalForAll(address,bool)": {
        "details": "See {IERC1155-setApprovalForAll}."
      },
      "supportsInterface(bytes4)": {
        "details": "See {IERC165-supportsInterface}."
      },
      "uri(uint256)": {
        "details": "See {IERC1155MetadataURI-uri}. This implementation returns the same URI for *all* token types. It relies on the token type ID substitution mechanism https://eips.ethereum.org/EIPS/eip-1155#metadata[defined in the EIP]. Clients calling this function must replace the `\\{id\\}` substring with the actual token type ID."
      }
    },
    "version": 1
  },
  "userdoc": {
    "kind": "user",
    "methods": {},
    "version": 1
  }
}